:100000000C94E9000C9411010C9411010C94110151
:100010000C9411010C9411010C9411010C94110118
:100020000C9411010C9411010C9427030C94990366
:100030000C9411010C9411010C9411010C941101F8
:100040000C9411010C9411010C9411010C941101E8
:100050000C9411010C9411010C9411010C94F008F2
:100060000C9411010C9411010C9411010C941101C8
:100070000C9411010C9411010C9411010C941101B8
:100080000C9411010C9411010C9411010C941101A8
:100090000C9411010C9411010C9411010C94110198
:1000A0000C9411010C9411010C941101000000003A
:1000B000000000002A2B28000000000000000000C3
:1000C0000000000000000000000000002C9EB4A012
:1000D000A1A2A434A6A7A5AE362D3738271E1F200F
:1000E000212223242526B333B62EB7B89F848586D4
:1000F0008788898A8B8C8D8E8F9091929394959618
:100100009798999A9B9C9D2F3130A3AD3504050695
:100110000708090A0B0C0D0E0F10111213141516F7
:100120001718191A1B1C1DAFB1B0B500080B00023F
:10013000020201000904000001020200000524007F
:100140001001052401010104240206052406000112
:100150000705810310004009040100020A000000A5
:100160000705020240000007058302400000040367
:10017000090412010002EF02014041233680000110
:100180000102030141726475696E6F204C4C43009B
:1001900041726475696E6F204C656F6E6172646F39
:1001A0000005010906A1018502050719E029E715E7
:1001B0000025017501950881029501750881039557
:1001C000067508150025730507190029738100C0FD
:1001D0003A0911241FBECFEFDAE0DEBFCDBF14E035
:1001E000A0E0B1E0E0E5FAE102C005900D92A03F89
:1001F000B107D9F725E0A0EFB4E001C01D92A23904
:10020000B207E1F710E0C9EED0E004C02197FE018B
:100210000E941B0DC83ED107C9F70E94A8090C9483
:10022000260D0C9400004091FE045091FF04209193
:10023000FC043091FD0442175307B4F49091E80098
:100240009570E1F39091E80092FD19C08093F10060
:100250008091FE049091FF0401968F739927892B5A
:1002600019F48EEF8093E8008091FE049091FF04D2
:1002700001969093FF048093FE0481E0089580E04E
:100280000895CF92DF92EF92FF920F931F93CF9337
:10029000DF931F92CDB7DEB7182F062FE42E862FDF
:1002A000880F8E5F99830E94130183E00E941301DF
:1002B000F12EC12E9981D92E8C2D8F19801798F48B
:1002C000F601E7FE02C0849101C080810E94130103
:1002D000182F80E00E9413018123FFEFCF1ADF0A5D
:1002E0008111EACF01C081E00F90DF91CF911F9182
:1002F0000F91FF90EF90DF90CF900895DF92EF92F3
:10030000FF920F931F93CF93DF93D82E8A017B0127
:10031000E40EF51EEB01CE15DF0571F0D7FE03C02C
:10032000FE01849101C088810E94130121968111F0
:10033000F2CF8FEF9FEF01C0C801DF91CF911F91E6
:100340000F91FF90EF90DF900895615030F0209171
:10035000F100FC0120830196F8CF289884E6809371
:1003600004050895CF92DF92EF92FF920F931F93AF
:10037000CF93DF936C017A018B01C0E0D0E0CE1502
:10038000DF0589F0D8016D918D01D601ED91FC91C9
:100390000190F081E02DC6010995892B11F47E01B1
:1003A00002C02196ECCFC701DF91CF911F910F9131
:1003B000FF90EF90DF90CF9008958091F404811129
:1003C0000DC082E08093F00484E08093F1041092E9
:1003D000F3041092F20481E08093F40480EF94E03F
:1003E00008950F931F93CF93DF931F92CDB7DEB77E
:1003F00082E0898342E450E06CE271E080E80E9490
:100400007E010E94DD01DC0112960D911C91139773
:100410000115110569F0D801ED91FC910280F3817D
:10042000E02DBE016F5F7F4FC801099597FF07C0A0
:1004300089810F90DF91CF911F910F910895F8015D
:1004400000851185E5CFDC01FB0112968C91129796
:1004500090E02481358182179307D1F491818081C6
:10046000813A31F481E0913091F0933089F411C0F8
:10047000813271F49B3021F482811F968C9305C0E8
:100480009A3031F4828150968C9381E008950895DA
:1004900080E00895DC01FB0188E4808389E48183A6
:1004A00084E482831D969C911D979F709F5B93832C
:1004B0001D968D919C911E9724E0969587952A957F
:1004C000E1F78F708F5B848385E00895EF92FF9250
:1004D0000F931F93CF93DF93FB012081213851F5B8
:1004E0002381223239F5DC0112962C9130E04481CF
:1004F000558142175307F1F4EC010B851C85E12C63
:10050000F12C0115110591F0F801448155816281AA
:10051000738180E80E947E018F3FFFEF9F0769F0A3
:10052000E80EF91ED8010D911C91EBCF81E08F8769
:10053000C70105C080E090E002C08FEF9FEFDF9120
:10054000CF911F910F91FF90EF900895CF93DF937C
:10055000CDB7DEB769970FB6F894DEBF0FBECDBF3B
:10056000FC01DB018C918F5F8C93BE016F5F7F4F2D
:1005700089E1DB011D928A95E9F729E0298384E06E
:100580008A8391E09D8383E08E832A8721E22B87F3
:100590009C879D879F8722E2288B27E02B8B25E075
:1005A0002C8B8E8B20E430E0388F2F8B998F8281BB
:1005B0008B8395858685998B8A8B838180688D8BCB
:1005C00049E150E080E00E947E0169960FB6F89400
:1005D000DEBF0FBECDBFDF91CF910895FC018281B8
:1005E0008F5BFB01808381E00895CF92DF92EF92D1
:1005F000FF920F931F93CF93DF936C01EB017B016D
:10060000E40EF51E00E010E0CE15DF0581F06991E3
:100610006D30D1F3D601ED91FC910190F081E02D88
:10062000C6010995892B19F00F5F1F4FEDCFC80147
:10063000DF91CF911F910F91FF90EF90DF90CF90BE
:100640000895089580E090E008950E94210D1F9282
:100650000F920FB60F9211248F939F938091E10018
:100660009091E100937F9093E10083FF0FC010927F
:10067000E90091E09093EB001092EC0092E39093EC
:10068000ED001092050598E09093F00082FF20C0E5
:1006900093E09093E9009091F200992319F09AE386
:1006A0009093E80090910005992339F0909100050E
:1006B000915090930005992389F190910405992315
:1006C00039F090910405915090930405992341F1DC
:1006D00084FF10C08091E2008E7E81608093E200F2
:1006E0008091E1008F7E8093E100809102058E7EF3
:1006F000806111C080FF16C08091E2008E7E806113
:100700008093E2008091E1008E7E8093E1008091F1
:1007100002058E7E81608093020504C05D9ACDCF74
:10072000289AD6CF9F918F910F900FBE0F901F9058
:1007300018951F920F920FB60F921124CF92DF924D
:10074000EF92FF920F931F932F933F934F935F93DB
:100750006F937F938F939F93AF93BF93EF93FF9389
:10076000CF93DF93CDB7DEB76C97DEBFCDBF1092CE
:10077000E9008091E80083FFEDC168E0CE01459675
:100780000E94A50182EF8093E8008D8987FF05C054
:100790009091E80090FFFCCF03C09EEF9093E8009B
:1007A000982F907609F0C6C09E892F89188D9111D7
:1007B0000CC0803829F4809103058093F10002C0B9
:1007C0001092F1001092F10048C1422F50E0512BDD
:1007D000913051F4811141C14130510509F03DC1C1
:1007E000809103058D7F0BC0933061F4811135C179
:1007F0004130510509F031C1809103058260809339
:1008000003052BC1953041F48091E80080FFFCCFB7
:1008100020682093E30021C1963009F05FC0EB8C83
:10082000FC8C1092E9001092FF041092FE0412302A
:1008300091F51092FD041092FC040E94F10199E0E0
:10084000BE016F5F7F4FDB01E92F1D92EA95E9F74B
:1008500099831A8391E09E8390EA98879AEF99870B
:100860002091FE043091FF04275F3F4F3C832B8390
:100870008D831092E9001092FF041092FE04F09212
:10088000FD04E092FC0449E050E080E00E947E011B
:100890000E94F101E2C0F092FD04E092FC040E948B
:1008A000DD01DC011296ED90FC901397E114F10448
:1008B00009F4C0C0D701ED91FC910480F581E02DD1
:1008C000BE016B5E7F4FC7010995009719F00CF0D0
:1008D000C4C0C7C0F701E084F184E8CF973009F4C1
:1008E000C0C0983021F481E08093F100B6C0993007
:1008F00009F0B3C0837009F0B4C0E1E0F1E081E039
:1009000021E036E39081992361F08093E900209300
:10091000EB0091919093EC003093ED008F5F873066
:1009200089F78EE78093EA001092EA008F8980931E
:10093000050593C08B8D9C8D1092E9001092FF04E9
:100940001092FE049093FD048093FC04898D811124
:1009500056C08E899D89913A59F4813209F081C03F
:1009600047E050E06BE071E080E00E947E0175C0DE
:10097000913209F076C0833289F4888D90E0982F07
:1009800088272F89822BA0E0B0E080930701909305
:100990000801A0930901B0930A015FC0803269F495
:1009A0008091E80082FFFCCF67E08BE091E00E943D
:1009B000A5018BEF8093E80006C0823209F04DC09C
:1009C0008F898093120180910105882319F0EEEF41
:1009D000FAE002C0E0E0F8E080910B0190910C0198
:1009E000A0910D01B0910E01803B9440A105B1058D
:1009F00009F07BC08091120180FF93C076C00E94F5
:100A0000DD01DC0112960D911C9113970115110562
:100A100041F1D801ED91FC910190F081E02DBE01F2
:100A20006B5E7F4FC8010995811117C0F8010085E1
:100A30001185ECCF113009F44EC0133091F48F8939
:100A4000882309F445C0823081F440E860E180E900
:100A500091E00E944101882321F08EEF8093E8000D
:100A600079C081E28093EB0075C0813029F440E8C1
:100A70006BE084E891E0EDCF833099F70E94DD01CF
:100A8000DC011296ED90FC9013978E010F5F1F4FC3
:100A90006801E114F10479F0D701ED91FC91068031
:100AA000F781E02DB801C7010995080F111DF70165
:100AB000E084F184EECFD8011C92F6010190002071
:100AC000E9F73197BF016C197D0940E0C601C1CF3C
:100AD0006EE671E002C062E771E06115710509F22E
:100AE000FB01449150E080E840CF0FB6F894A89500
:100AF00080916000886180936000109260000FBE5A
:100B0000A895EE3F2AE0F20739F08091FE0A909115
:100B1000FF0A91838083A1CF1092FF0A1092FE0AF0
:100B20009CCFEE3F8AE0F80731F08081918190936D
:100B3000FF0A8093FE0A87E797E7918380839BE013
:100B400088E10FB6F894A895809360000FBE90934B
:100B5000600083CF6C960FB6F894DEBF0FBECDBF9A
:100B6000DF91CF91FF91EF91BF91AF919F918F91C5
:100B70007F916F915F914F913F912F911F910F91B5
:100B8000FF90EF90DF90CF900F900FBE0F901F90CF
:100B900018952FB7F89487708093E9009091E8003A
:100BA000892F807295FF04C09091F20080E4891B28
:100BB0002FBF08957F928F929F92AF92BF92CF9254
:100BC000DF92EF92FF920F931F93CF93DF93C82E84
:100BD0008B017A0180910505811103C08FEF9FEF92
:100BE00075C08091020580FF05C08091E0008260A1
:100BF0008093E000CE2DDF2DD12C8AEF882E8C2D16
:100C00008770B82E8C2D8072A82E8C2D8074982E13
:100C10009AE3792E209709F452C08C2D0E94C905C1
:100C2000282F81110AC08A948820C1F261E070E007
:100C300080E090E00E94B608EDCF90E0C817D90799
:100C40000CF42C2F3FB7F894B092E9008091E800A3
:100C500085FF33C0822F90E0C81BD90BAA2029F052
:100C60002150A8F01092F100FBCFF801C7FE07C099
:100C7000215058F044914093F1003196F9CF215022
:100C800020F041914093F100FACF080F191FDD20A9
:100C900019F07092E8000AC08091E80085FD08C054
:100CA0007092E800DD24D394209739F0D12C05C050
:100CB000209719F491107092E8003FBFABCFD1108C
:100CC000ACCF5D9884E680930005C701DF91CF919A
:100CD0001F910F91FF90EF90DF90CF90BF90AF905A
:100CE0009F908F907F900895CF93DF93EC0181E0E8
:100CF0008C838D839E01265F3F4F3F832E83198611
:100D0000188627E131E0398328831C861B861E86DE
:100D10001D868F87888B81EC8A870E94DD01FC010C
:100D200021818C8190E0820F911D089774F5A2813A
:100D3000B381109719F4D383C2830CC018968D9198
:100D40009C911997009711F0DC01F8CF1996DC936C
:100D5000CE93189780818A8381818B8390818D8146
:100D6000890F808380E09C81891778F4AE81BF81F0
:100D7000A80FB11D9C91A181B0E0A050BF4F9C93E2
:100D800091819F5F91838F5FEECFDF91CF91089527
:100D90000F931F93CF93DF931F92CDB7DEB78B01D5
:100DA00080911705811107C086E095E00E947406C6
:100DB00081E08093170582E0898341E050E0BE0125
:100DC0006F5F7F4F809109050E94DA0597FD08C08B
:100DD0008091090548E050E0B80180640E94DA057E
:100DE0000F90DF91CF911F910F910895DC0168382A
:100DF00010F068582DC0E62FF0E067FF11C0E058F2
:100E0000F10981E090E001C0880FEA95EAF71496B5
:100E10009C911497892B14968C93149760E018C0BA
:100E2000E455FF4F6491611109C081E090E0139691
:100E30009C938E93129780E090E0089567FF08C01E
:100E400014968C911497826014968C9314976F77F4
:100E500016968C911697861751F117968C911797C5
:100E6000861729F118968C911897861701F1199613
:100E70008C9119978617D9F01A968C911A97861724
:100E8000B1F01B968C911B97861789F0FD01369661
:100E900080E090E02191211105C0FD01E80FF91FCC
:100EA000668305C0019686309105A1F7BECFCD01BE
:100EB000BD016C5F7F4F0E94C80681E090E00895FD
:100EC000EF92FF920F931F93CF938C01C62F0E9436
:100ED000F6067C01C83818F068E76C0F1FC0EC2FCD
:100EE000F0E0C7FF0FC0E058F10921E030E001C099
:100EF000220FEA95EAF72095F801848128232483BC
:100F000060E00CC0E455FF4F64916623D1F067FFA9
:100F100005C0F80184818D7F84836F77F801369650
:100F200086E0662321F09081961301C010828150E3
:100F300031968111F6CFB8016C5F7F4FC8010E94D6
:100F4000C806C7019927CF911F910F91FF90EF908D
:100F50000895FC0180910505811103C08FEF9FEF7B
:100F600008959FB7F89482E08093E9002091F20001
:100F700030E01216130614F421E030E0211531059B
:100F800059F0289884E6809304058091F1008083CD
:100F90008091F200882319F09FBFC90108958BE664
:100FA0008093E800F9CFCF93DF931F92CDB7DEB7E0
:100FB0006983DC01ED91FC910280F381E02D41E039
:100FC00050E0BE016F5F7F4F09950F90DF91CF9189
:100FD000089583E08093E9008091F200882319F05E
:100FE0008AE38093E8000895CF93DF931F92CDB7F3
:100FF000DEB7FC018485958597FD05C02FEF3FEF97
:10100000358724870BC0CE0101960E94A90701975E
:1010100019F4898190E002C08FEF9FEF0F90DF916C
:10102000CF9108950F931F93CF93DF931F92CDB766
:10103000DEB78C01FC018485958597FF0EC0CE013B
:1010400001960E94A907019719F4298130E002C096
:101050002FEF3FEFF80135872487F80184859585C8
:101060000F90DF91CF911F910F910895FC0184851E
:10107000958597FD0BC09FB7F89482E08093E900B7
:101080008091F2009FBF90E0019608959FB7F89479
:1010900082E08093E9008091F2009FBF90E0089584
:1010A0003FB7F8948091240590912505A0912605DD
:1010B000B091270526B5A89B05C02F3F19F00196D2
:1010C000A11DB11D3FBFBA2FA92F982F8827820FCE
:1010D000911DA11DB11DBC01CD0142E0660F771F1E
:1010E000881F991F4A95D1F70895BC01009791F088
:1010F000FC0101900020E9F73197AF01481B590B23
:10110000E0918605F09187050280F381E02D86E865
:1011100095E0099480E090E00895CF93DF930E94DA
:101120007508EC018DE391E00E9475088C0F9D1FFE
:10113000DF91CF910895CF93DF93EC01809112015D
:10114000882331F083E00E94DA051816190634F07E
:1011500081E090E09B838A8380E090E0DF91CF91F3
:10116000089583E00E94C90590E008958F929F92B0
:10117000AF92BF92CF92DF92EF92FF926B017C0110
:101180000E9450084B015C01C114D104E104F10438
:10119000F1F00E945008DC01CB0188199909AA09D5
:1011A000BB09883E9340A105B10570F321E0C21A46
:1011B000D108E108F10888EE880E83E0981EA11C92
:1011C000B11CC114D104E104F10419F7DDCFFF9083
:1011D000EF90DF90CF90BF90AF909F908F90089549
:1011E0001F920F920FB60F9211242F933F938F935C
:1011F0009F93AF93BF938091200590912105A0917B
:101200002205B091230530911F0523E0230F2D37D0
:1012100020F40196A11DB11D05C026E8230F0296FA
:10122000A11DB11D20931F058093200590932105DA
:10123000A0932205B0932305809124059091250564
:10124000A0912605B09127050196A11DB11D80939F
:10125000240590932505A0932605B0932705BF91FB
:10126000AF919F918F913F912F910F900FBE0F9053
:101270001F90189510922B0510922A0588EE93E086
:10128000A0E0B0E080932C0590932D05A0932E054F
:10129000B0932F0583E291E0909329058093280570
:1012A0008FEF9FEF90933505809334051092890559
:1012B0001092880585E391E09093870580938605D9
:1012C00080917E05811113C01092790510927805E6
:1012D00081EA91E090937B0580937A058FE290E01C
:1012E00090937D0580937C0581E080937E058091BD
:1012F0001705811107C086E095E00E94740681E021
:1013000080931705E0911105F0911205309739F49B
:1013100088E795E090931205809311050AC08081BB
:101320009181009711F0FC01FACF88E795E0918355
:10133000808320917C0530917D05809113059091EB
:101340001405820F931F909314058093130508953D
:10135000789484B5826084BD84B5816084BD85B590
:10136000826085BD85B5816085BD80916E0081609C
:1013700080936E0010928100809181008260809342
:101380008100809181008160809381008091800044
:1013900081608093800080919100826080939100B1
:1013A0008091910081608093910080919000816094
:1013B000809390008091C10084608093C1008091EF
:1013C000C10082608093C1008091C10081608093E0
:1013D000C1008091C30081608093C3008091C000F0
:1013E00082608093C0008091C20081608093C200BF
:1013F00080917A00846080937A0080917A00826084
:1014000080937A0080917A00816080937A00809145
:101410007A00806880937A00109205051092030587
:10142000109202058091D70081608093D70080EAF6
:101430008093D80089B5806189BD89B5826089BDF6
:1014400009B400FEFDCF61E070E080E090E00E9412
:10145000B6088091D8008F7C80618093D8008091FD
:10146000E000807F8093E0008091E1008E7E809399
:10147000E1008DE08093E200559A209AEEEFFFE7BD
:10148000859194918B3F9C4D19F481E080930105E7
:1014900068E873E180E090E00E94B60863E886E8BF
:1014A00095E00E94F60662E786E895E00E94F6065F
:1014B00010928C0510928D0510928E0510928F055A
:1014C000109290051092910510928A056AE875E0D5
:1014D00086E895E00E94C80664EF71E080E090E045
:1014E0000E94B60880E491E00E948D0864EF71E0EC
:1014F00080E090E00E94B6088CE491E00E948D08A4
:1015000064EF71E080E090E00E94B60883E591E02E
:101510000E948D0864EF71E080E090E00E94B608C0
:1015200082E691E00E948D0864EF71E080E090E037
:101530000E94B60887E791E00E948D0864EF71E091
:1015400080E090E00E94B6088BE891E00E948D0850
:1015500064EF71E080E090E00E94B60889EA91E0D3
:101560000E948D0864EF71E080E090E00E94B60870
:1015700088EC91E00E948D0864EF71E080E090E0DB
:101580000E94B60883ED91E00E948D0864EF71E03F
:1015900080E090E00E94B6088BEE91E00E948D08FA
:1015A00064EF71E080E090E00E94B6088EEF91E079
:1015B0000E948D0864EF71E080E090E00E94B60820
:1015C0008EE592E00E948D0864EF71E080E090E08B
:1015D0000E94B60887E092E00E948D0864EF71E0F7
:1015E00080E090E00E94B6088CE192E00E948D08B5
:1015F00064EF71E080E090E00E94B60887E292E03C
:101600000E948D0864EF71E080E090E00E94B608CF
:1016100086E492E00E948D0864EF71E080E090E043
:101620000E94B60881E692E00E948D0864EF71E0A6
:1016300080E090E00E94B60880E792E00E948D086A
:1016400064EF71E080E090E00E94B6088BE892E0E1
:101650000E948D0864EF71E080E090E00E94B6087F
:1016600088E992E00E948D0864EF71E080E090E0EC
:101670000E94B60883EA92E00E948D0864EF71E050
:1016800080E090E00E94B60881EB92E00E948D0815
:1016900064EF71E080E090E00E94B6088CE592E093
:1016A0000E948D0864EF71E080E090E00E94B6082F
:1016B0008AEB92E00E948D0864EF71E080E090E098
:1016C0000E94B60885EC92E00E948D0864EF71E0FC
:1016D00080E090E00E94B60880ED92E00E948D08C4
:1016E00064EF71E080E090E00E94B60887ED92E040
:1016F0000E948D0864EF71E080E090E00E94B608DF
:1017000082EF92E00E948D0864EF71E080E090E04B
:101710000E94B60887E093E00E948D0864EF71E0B4
:1017200080E090E00E94B60880E193E00E948D087E
:1017300064EF71E080E090E00E94B6088EE592E0F0
:101740000E948D0864EF71E080E090E00E94B6088E
:1017500087E293E00E948D0864EF71E080E090E002
:101760000E94B60886E493E00E948D0864EF71E061
:1017700080E090E00E94B6088CED93E00E948D0816
:1017800064EF71E080E090E00E94B6088DE493E0A1
:101790000E948D0864EF71E080E090E00E94B6083E
:1017A00084E693E00E948D0864EF71E080E090E0B1
:1017B0000E94B60883E793E00E948D0864EF71E011
:1017C00080E090E00E94B6088FE893E00E948D08C8
:1017D00064EF71E080E090E00E94B60886EA93E052
:1017E0000E948D0864EF71E080E090E00E94B608EE
:1017F00083EB93E00E948D0864EF71E080E090E05D
:101800000E94B6088FEB93E00E948D0864EF71E0B0
:1018100080E090E00E94B60880ED93E00E948D0881
:1018200064EF71E080E090E00E94B6088FED93E0F5
:101830000E948D0864EF71E080E090E00E94B6089D
:101840008FEE93E00E948D0864EF71E080E090E0FD
:101850000E94B60880E094E00E948D0864EF71E079
:1018600080E090E00E94B6088BE494E00E948D082E
:1018700064EF71E080E090E00E94B60883E194E0BC
:101880000E948D0864EF71E080E090E00E94B6084D
:101890008CE294E00E948D0864EF71E080E090E0BB
:1018A0000E94B6088BE394E00E948D0864EF71E01B
:1018B00080E090E00E94B6088FE494E00E948D08DA
:1018C00064EF71E080E090E00E94B60882E594E069
:1018D0000E948D0864EF71E080E090E00E94B608FD
:1018E00080E994E00E948D0864EF71E080E090E070
:1018F0000E94B6088FE594E00E948D0864EF71E0C5
:1019000080E090E00E94B6088CE694E00E948D088A
:1019100064EF71E080E090E00E94B6088DE794E00B
:101920000E948D0864EF71E080E090E00E94B608AC
:101930008EE894E00E948D0864EF71E080E090E012
:101940000E94B60887E994E00E948D0864EF71E078
:1019500080E090E00E94B6088EE994E00E948D0835
:1019600064EF71E080E090E00E94B60885EB94E0BF
:101970000E948D0864EF71E080E090E00E94B6085C
:101980008BEC94E00E948D0864EF71E080E090E0C1
:101990000E94B60885E494E00E948D0864EF71E02F
:1019A00080E090E00E94B60885E494E00E948D08F3
:1019B00064EF71E080E090E00E94B60886ED94E06C
:1019C0000E948D0864EF71E080E090E00E94B6080C
:1019D0008DE494E00E948D0864EF71E080E090E077
:1019E0000E94B6088DE494E00E948D0864EF71E0D7
:1019F00080E090E00E94B60884E994E00E948D089F
:101A000064EF71E080E090E00E94B60885EE94E01B
:101A10000E948D0864EF71E080E090E00E94B608BB
:101A20008FE494E00E948D0864EF71E080E090E024
:101A30000E94B608FFCFEE0FFF1F0590F491E02D36
:101A4000099481E090E0F8940C94260DF894FFCF6F
:101A500000C18081000000FFFFFFFF00E1000000E7
:101A6000000000000000002302A60266024A0200F5
:101A7000000000D3079B08B108E9073608F40712F5
:101A800008000000006007F502220321030D0A0090
:101A90006E6F74657061642E657865003434363419
:101AA0003620002B2028203634303934202B2028B3
:101AB00020003731383235202A202820282031359F
:101AC000383733202B200028203231373933202A71
:101AD00020282037323334202B200028203137367D
:101AE0003439202A202820282032313535202B2057
:101AF0002820373437363720002A20282033353342
:101B00003932202B2028203838323136202A20281C
:101B100020383339323020002B202820313632371C
:101B20003020002B2028203230313531202A202847
:101B30002035323638202B202820003930363933F2
:101B4000202A2028203832373733202B2000282025
:101B5000373136202B20003237333737202A2028E0
:101B6000203434333239202B2028200034393336C6
:101B700036202A20282000282028203338373930E2
:101B8000202B2028203730323437202A20282039B3
:101B90003732333320002B2028203138333437209C
:101BA0002B2028203232313137202A2028202820AB
:101BB0000028203732353736202B202820282000D7
:101BC0003437353431202B2028203436393735202E
:101BD0002B202820353337363920002A2028203979
:101BE00034303035202B200028202820373239315E
:101BF0003420002B20282035313337202B2028207B
:101C0000003837353434202A200037313538332036
:101C10002B202820003230333730202B2028200082
:101C2000333739363820002A2028203137343738E6
:101C3000202B20282028203430353332202B202818
:101C400020003130303839202B20282031333333F5
:101C500032202A202820002820323431373020003A
:101C60002B2028203436383435202A2028203136BD
:101C7000303438202B20003233313432202A2028CF
:101C8000203331383935202B20282036323338366E
:101C9000202A2028200031323137392000282039ED
:101CA00034353532202B2028202820282035323981
:101CB000313820002B2028203931353830202B2096
:101CC000282000282028203338343132202B2028A7
:101CD000203931353337202A202820373020002B77
:101CE0002028203938353934202A2028202820334C
:101CF0003532373520002B2028203632393132203A
:101D00002A2000282034373535202B202820003188
:101D100036373337202A202820323735393520000E
:101D20002B20282028203433353531202B20002843
:101D3000203634343832202A2033353530200029FB
:101D40002029202D20323130333120292029200034
:101D500029202920292029202D20353735353320E9
:101D600029200029202D2038393838332029202DEA
:101D700020333839303020292029200029202D20F7
:101D800031393531372029202D200037393038328C
:101D900020292029202920292029202920292029FB
:101DA00020002D20373036343320292029200035DB
:101DB00035333530202920292029200029202920C9
:101DC0002D203430333031202920292000292029AA
:101DD000202D203833303635202920292000292095
:101DE000292029202D2000353234363020002920AA
:101DF00029202D2034393432382029202D2039341F
:101E00003638362000292029202920292029202978
:101E1000202D2031363533202920002D2036353233
:101E2000313720292000292029202D203433383231
:101E30003720292000363635363220292029200047
:2070000055C000006EC000006CC000006AC0000068C0000066C0000064C0000062C0000043
:2070200060C000005EC00000F2C400005AC0000058C0000056C0000054C0000052C00000EE
:2070400050C0000078C000004CC000004AC0000048C0000046C0000044C0000042C00000BE
:2070600040C000003EC000003CC000003AC0000038C0000036C0000034C0000032C0000048
:2070800030C000002EC000002CC000002AC0000028C0000026C0000024C0000022C00000A8
:2070A00020C000001EC000001CC0000011241FBECFEFDAE0DEBFCDBF11E0A0E0B1E0E2E3BC
:2070C000FFE702C005900D92A83AB107D9F711E0A8EAB1E001C01D92AE3BB107E1F78FD30B
:2070E00026C78ECFF89410926F0010928100109285001092840081E085BF15BE47985D9AEB
:20710000289A0C94000008952091B2013091B3012F5F3F4F3093B3012093B201932F37FFA6
:2071200003C08EEF831B982F990F921710F447980895479A08951F920F920FB60F9211246E
:207140002F938F939F93EF93FF9310928500109284008091A8019091A901009741F00197D3
:207160009093A9018093A801892B09F45D9A8091AA019091AB01009741F001979093AB0126
:207180008093AA01892B09F4289AE0E0F0E0859194918F5F9F4F49F08091AC019091AD0151
:2071A00001969093AD018093AC01FF91EF919F918F912F910F900FBE0F901F90189584E0BC
:2071C0008093E9000DC08091E8008B778093E80003C08EB3882351F08091E80082FFF9CFBE
:2071E0008091E80085FFEFCF8091F1000895982F83E08093E9008091E80085FD0DC0809136
:20720000E8008E778093E80003C08EB3882369F08091E80080FFF9CF9093F1005D9884E6CB
:2072200090E09093A9018093A80108954F925F926F927F928F929F92AF92BF92CF92DF921E
:20724000EF92FF920F931F93CF93DF9384E08093E9008091E80082FF57C2289884E690E067
:207260009093AB018093AA01AADF182F853481F48CE49DE19093AD018093AC0107B600FC4B
:20728000FDCFF999FECF81E180935700E89503C0843519F494DF8DE00DC28C34E1F38035F9
:2072A000D1F3843721F484E4A2DF80E003C2813611F489E5FFC18134B1F481DF182F7FDFE3
:2072C00090E0880F991FAA2797FDA095BA2F312F330F20E0442737FD4095542F822B932B68
:2072E000A42BB52BB8C1803711F483E5E3C1833549F4C0E0D1E089917ADF21E0C730D20714
:20730000D1F7D9C1863521F481E371DF80E3D2C1833731F487E86BDF85E969DF8EE1CAC149
:207320008536B9F4E0E0F0E093E085E090935700E89507B600FCFDCF80935700E89507B65D
:2073400000FCFDCFE058FF4FA0E7E030FA0771F7A2CF823739F4E1E0F0E089E08093570024
:207360008491A8C1863439F4E0E0F0E089E08093570084919FC18E3439F4E3E0F0E089E0E5
:2073800080935700849196C1813539F4E2E0F0E089E08093570084918DC1823631F489E521
:2073A00026DF80E024DF80E885C1823419F0873609F0E5C01092AD011092AC0100DF082FE8
:2073C000FEDEF82EFCDE682E8554823008F071C1902F80E0CF2DD0E0C82BD92B10926F00B3
:2073E000173609F04BC081E180935700E895DD24CC24C3943FC0E090AE01F090AF010091CC
:20740000B0011091B101B6E46B16D9F4ED2DF0E0EE29FF29E4918E2FEADEDD2081F082E08D
:2074200090E0A0E0B0E0E80EF91E0A1F1B1FE092AE01F092AF010093B0011093B101DC2470
:2074400018C0D801C701B695A7959795879559D5CEDE82E090E0A0E0B0E0E80EF91E0A1FF2
:207460001B1FE092AE01F092AF010093B0011093B1012197209709F0BECF7DC08090AE01F5
:207480009090AF01A090B001B090B10196E4691609F05DC083E0F40180935700E89507B63E
:2074A00000FCFDCF54C0F6E46F1661F5772031F1E090AE01F090AF010091B0011091B1019E
:2074C0007EDED82ECC24852D90E08C299D29F7010C0140925700E895112482E090E0A0E08B
:2074E000B0E0E80EF91E0A1F1B1FE092AE01F092AF010093B0011093B10102C060DE582E1A
:20750000742423C0E090AE01F090AF010091B0011091B10116950795F794E79450DE682FFA
:20752000C701F7D48091AE019091AF01A091B001B091B1010296A11DB11D8093AE01909349
:20754000AF01A093B001B093B101219704C05524772444244394209709F0A5CF96E46916B6
:2075600041F485E0F40180935700E89507B600FCFDCF8DE03CDE82E080936F009CC0833492
:2075800071F40091AE011091AF0119DE90E021E0F8010C0120935700E89511247CCE8336C8
:2075A00019F5E090AE01F090AF010091B0011091B10105DEF701E16090E021E00C0120938C
:2075C0005700E895112482E090E0A0E0B0E0E80EF91E0A1F1B1FE092AE01F092AF0100936A
:2075E000B0011093B10157CE8D3661F4E091AE01F091AF0185E080935700E89507B600FCF2
:20760000FDCF49CE823551F4E091AE01F091AF0105911491812FEBDD802F4CC0843421F5FE
:20762000E090AE01F090AF010091B0011091B10116950795F794E794C2DD682FC70169D4DE
:207640008091AE019091AF01A091B001B091B1010296A11DB11D8093AE019093AF01A093D8
:20766000B001B093B10117CE843609F5E090AE01F090AF010091B0011091B101D801C70142
:20768000B695A795979587953CD4B1DD82E090E0A0E0B0E0E80EF91E0A1F1B1FE092AE010A
:2076A000F092AF010093B0011093B10104C08B3111F08FE39CDD83E08093E9009091E8002B
:2076C0008091E8008E778093E80095FF04C010C08EB38823C9F08091E80080FFF9CF809193
:2076E000E8008E778093E80003C08EB3882361F08091E80080FFF9CF84E08093E9008091F1
:20770000E8008B778093E800DF91CF911F910F91FF90EF90DF90CF90BF90AF909F908F90AC
:207720007F906F905F904F9008959091B601892F8F77813249F58091B7018032A1F081328A
:2077400019F5913A09F58091E800877F8093E8008DE091E067E070E00BD28091E8008B770B
:207760008093E8000895913279F48091E800877F8093E8008DE091E067E070E05DD2809192
:20778000E8008E778093E800089582E061EC42E0B5D083E061E842E1B1D084E060E842E1EF
:2077A000ADC084B7877F84BF88E10FB6F89480936000109260000FBE20E880E090E00FB63F
:2077C000F89420936100809361000FBE81E085BF92E095BF3F9A209A559AE1E6F0E02083A1
:2077E000108247985D9A289A109289008AEF8093880090936F0083E080938100F0C0409116
:20780000000850910108109201081092000894B714BE88E10FB6F8948093600010926000D5
:207820000FBE292F30E0F901E270F07091FD18C090FF05C0859194918F5F9F4F81F423FFFF
:207840000FC08091090190910A014817590741F0E0E0F0E0859194918F5F9F4F09F042DC64
:20786000A0DF78941092AD011092AC010CC0DEDC36D38091AC019091AD0181549F4110F00D
:207880001092140141DC80911401882381F78091E00081608093E00025DC80E090E0089598
:2078A000FA01923049F0933061F09130F9F485E191E022E130E01EC087E291E02EE330E04D
:2078C00019C0882329F485E691E024E030E012C0813029F489E691E022E230E00BC0823006
:2078E00029F48DE891E028E130E004C080E090E020E030E091838083C90108958093E9004E
:207900008091EB0081608093EB001092ED006093EC004093ED008091EE00881F8827881F62
:2079200008958091B60188238CF403C08EB38823B1F08091E80082FFF9CF8091E8008B772A
:207940008093E80008958EB3882349F08091E80080FFF9CF8091E8008E778093E800089594
:20796000EF92FF920F931F9345D04CD008ED10E0F80180818F77808380818068808380819B
:207980008F7D808319BC1EBA1092B40180EEE82EF12CF70180818B7F8083F8018081816052
:2079A000808380E060E042E0A9DFE1EEF0E080818E7F8083E2EEF0E0808181608083808144
:2079C00088608083F70180818E7F8083F8018081806180831F910F91FF90EF900895E7ED06
:2079E000F0E08081816080838AE482BF81E08093B501B6CFE8EDF0E080818E7F808310921C
:207A0000E20008951092DA001092E10008951F920F920FB60F9211242F933F934F935F93F6
:207A20006F937F938F939F93AF93BF93EF93FF938091DA0080FF1BC08091D80080FF17C0B2
:207A40008091DA008E7F8093DA008091D90080FF0BC080E189BD82E189BD09B400FEFDCF36
:207A600081E08EBB3BD203C019BC1EBA37D28091E10080FF17C08091E20080FF13C0809138
:207A8000E2008E7F8093E2008091E20080618093E2008091D80080628093D80019BC85E049
:207AA0008EBB1CD28091E10084FF2CC08091E20084FF28C080E189BD82E189BD09B400FEC5
:207AC000FDCF8091D8008F7D8093D8008091E1008F7E8093E1008091E2008F7E8093E20012
:207AE0008091E20081608093E2008091B401882331F48091E30087FD02C081E001C084E067
:207B00008EBBECD18091E10083FF21C08091E20083FF1DC08091E100877F8093E10082E06A
:207B20008EBB1092B4018091E1008E7F8093E1008091E2008E7F8093E2008091E2008061E9
:207B40008093E20080E060E042E0D8DEC7D1FF91EF91BF91AF919F918F917F916F915F9130
:207B60004F913F912F910F900FBE0F901F9018959C014091BC015091BD014617570718F49D
:207B8000F90190E044C06115710511F0AB01F8CF8091E8008E778093E80040E050E0F0CF0F
:207BA0008EB3882309F444C0853009F443C08091E80083FF02C081E008958091E80082FD70
:207BC00031C08091E80080FF22C08091F3009091F200782F60E0292F30E0262B372B07C07A
:207BE00081918093F100415050402F5F3F4F4115510519F02830310598F390E02830310566
:207C000009F491E08091E8008E778093E8004115510531F6992321F605C08EB3882341F075
:207C2000853041F08091E80082FFF7CF80E0089582E0089583E008959C016115710529F47C
:207C40008091E8008B778093E800F90126C08EB3882391F1853091F18091E80083FF02C06C
:207C600081E008958091E80082FFF1CF06C08091F10081936150704059F02091F300809191
:207C8000F200322F20E090E0822B932B892B79F78091E8008B778093E80061157105B9F601
:207CA00005C08EB3882341F0853041F08091E80080FFF7CF80E0089582E0089583E00895C2
:207CC0000F931F93DF93CF9300D0CDB7DEB7E6EBF1E08091F100819381E0EE3BF807C9F792
:207CE00024DD8091E80083FFE4C08091B6019091B701953009F46DC0963040F4913081F1A7
:207D0000913070F0933009F0D4C02AC0983009F4A3C0993009F4B2C0963009F0CAC07CC023
:207D2000803809F4C6C0823809F0C3C08091BA0187708093E9008091EB001092E9002091DB
:207D4000E800277F2093E80090E025E0969587952A95E1F781708093F1001092F10087C0D8
:207D6000882319F0823009F0A4C08F71823009F0A0C08091B801882331F52091BA01277097
:207D800009F497C02093E9008091EB0080FF1BC0933021F48091EB00806213C08091EB0018
:207DA00080618093EB0081E090E002C0880F991F2A95E2F78093EA001092EA008091EB00E5
:207DC00088608093EB001092E9008091E800877F51C0882309F06DC01091B8011F770FB79B
:207DE000F8948091E800877F8093E8009ADD8091E80080FFFCCF8091E3008078812B809398
:207E0000E30080688093E300112311F482E001C083E08EBB0FBF4DC08058823008F049C033
:207E20008091B8019091B9016091BA01AE014F5F5F4F36DDBC01009709F43BC08091E8008E
:207E4000877F8093E80089819A8192DE8091E8008B778093E8002DC0803859F58091E800AA
:207E6000877F8093E8008091B4018093F1008091E8008E778093E80054DD1BC08823C9F4CA
:207E80009091B8019230A8F48091E800877F8093E8009093B40145DD8091B401882331F420
:207EA0008091E30087FD02C081E001C084E08EBB6CDC8091E80083FF0AC08091EB0080624E
:207EC0008093EB008091E800877F8093E8000F900F90CF91DF911F910F91089508951F9360
:207EE0008EB3882361F01091E9001092E9008091E80083FF01C0E4DE17701093E9001F916F
:207F00000895F999FECF92BD81BDF89A992780B50895262FF999FECF1FBA92BD81BD20BDBD
:207F20000FB6F894FA9AF99A0FBE01960895F894FFCF4341544552494E4100777700080031
:207F40000000000000080112011001020000084123360001000201000109023E00020100FF
:207F600080320904000001020201000524001001042402040524060001070582030800FF0C
:207F800009040100020A000000070504021000010705830210000104030904220341007216
:207FA000006400750069006E006F0020004C0065006F006E006100720064006F0000001836
:1A7FC00003410072006400750069006E006F0020004C004C004300000000D7
:00000001FF
